:100000000C942A000C9434000C9434000C943400AA
:100010000C9434000C9434000C9434000C94340090
:100020000C9434000C9434000C9434000C94340080
:100030000C9434000C9434000C9434000C94340070
:100040000C9434000C9434000C9434000C94340060
:100050000C94340011241FBECFE5D8E0DEBFCDBF25
:100060000E9436000C9447000C9400001ABA8FEFDF
:1000700084BB89B3282F217030E080FF03C08FE05C
:1000800085BBF7CF232BA9F780EF85BBF2CFF89480
:02009000FFCFA0
:00000001FF
