:100000000C9462000C948A000C948A000C948A0070
:100010000C948A000C948A000C948A000C948A0038
:100020000C948A000C948A000C948A000C948A0028
:100030000C948A000C9426040C948A000C948A0078
:100040000C94DC030C948A000C948A000C948A00B3
:100050000C948A000C948A000C948A000C948A00F8
:100060000C948A000C948A000000000024002700F1
:100070002A0000000000250028002B0000000000DE
:1000800023002600290004040404040404040202DA
:100090000202020203030303030301020408102007
:1000A0004080010204081020010204081020000012
:1000B0000008000201000003040700000000000027
:1000C0000000810611241FBECFEFD8E0DEBFCDBFF8
:1000D00011E0A0E0B1E0E6E1F2E102C005900D928E
:1000E000A036B107D9F721E0A0E6B1E001C01D922A
:1000F000AD38B207E1F710E0C2E6D0E004C02197C6
:10010000FE010E94FE08C136D107C9F70E944D04C6
:100110000C9409090C940000833081F028F481309C
:1001200099F08230A1F008958730A9F08830B9F0B5
:100130008430D1F4809180008F7D03C08091800055
:100140008F7780938000089584B58F7702C084B53F
:100150008F7D84BD08958091B0008F7703C080911A
:10016000B0008F7D8093B0000895CF93DF93282F48
:1001700030E0F901E255FF4F8491F901E656FF4F57
:10018000D491F901EA57FF4FC491CC2391F081112A
:100190000E948C00EC2FF0E0EE0FFF1FE458FF4FA1
:1001A000A591B491EC91ED2381E090E021F480E001
:1001B00002C080E090E0DF91CF9108951F93CF932C
:1001C000DF93282F30E0F901E255FF4F8491F901C8
:1001D000E656FF4FD491F901EA57FF4FC491CC2363
:1001E000C1F0162F81110E948C00EC2FF0E0EE0F71
:1001F000FF1FEE58FF4FA591B4919FB7F8941111CE
:1002000004C08C91D095D82302C0EC91DE2BDC93F6
:100210009FBFDF91CF911F910895CF93DF9390E01F
:10022000FC01E656FF4F2491FC01EA57FF4F8491F1
:10023000882361F190E0880F991FFC01E859FF4F76
:10024000C591D491FC01EE58FF4FA591B491611175
:1002500009C09FB7F8948881209582238883EC9108
:100260002E230BC0623061F49FB7F8948881322F3F
:10027000309583238883EC912E2B2C939FBF06C04F
:100280008FB7F894E8812E2B28838FBFDF91CF9111
:1002900008953FB7F8948091710190917201A091F7
:1002A0007301B091740126B5A89B05C02F3F19F0CA
:1002B0000196A11DB11D3FBFBA2FA92F982F8827E6
:1002C000820F911DA11DB11DBC01CD0142E0660F41
:1002D000771F881F991F4A95D1F708958F929F9293
:1002E000AF92BF92CF92DF92EF92FF926B017C01AF
:1002F0000E9449014B015C01C114D104E104F104E5
:10030000F1F00E944901DC01CB0188199909AA0981
:10031000BB09883E9340A105B10570F321E0C21AE4
:10032000D108E108F10888EE880E83E0981EA11C30
:10033000B11CC114D104E104F10419F7DDCFFF9021
:10034000EF90DF90CF90BF90AF909F908F900895E7
:10035000CF92DF92EF92FF920F931F93CF93DF9391
:100360006C017A018B01C0E0D0E0CE15DF0581F091
:10037000D8016D918D01D601ED91FC910190F08134
:10038000E02DC6010995892B11F02196EECF7E0153
:10039000C701DF91CF911F910F91FF90EF90DF90F8
:1003A000CF900895CF93DF93EC0160E08E810E949F
:1003B000DE0061E08E810E94DE0060E08E810E949E
:1003C000DE008BE891E00197F1F7DF91CF9108957E
:1003D000CF92DF92EF92FF920F931F93CF93DF9311
:1003E0006C017C0187E0E80EF11CC0E0D0E0062F34
:1003F00010E0B8010C2E02C0759567950A94E2F7DB
:100400006170F70181917F010E94DE002196C43066
:10041000D10579F7C601DF91CF911F910F91FF9020
:10042000EF90DF90CF900C94D201CF92DF92EF92B9
:10043000FF920F931F93CF93DF93EC01F62E642F5F
:100440008C810E94DE008D818F3F19F060E00E9458
:10045000DE008F850F2D10E084FF25C06E0187E040
:10046000C80ED11CE12CF12CB8010E2C02C07595E0
:1004700067950A94E2F76170F60181916F010E941D
:10048000DE00FFEFEF1AFF0A88E0E816F10461F7DB
:10049000CE01DF91CF911F910F91FF90EF90DF90F0
:1004A000CF900C94D201B80184E0759567958A9538
:1004B000E1F7CE010E94E8016F2DCE01DF91CF91CF
:1004C0001F910F91FF90EF90DF90CF900C94E80177
:1004D00040E0682F85E791E00C94150281E00E94CE
:1004E00068028BE39FE10197F1F70895CF93DF93C3
:1004F000623028F090918401986090938401609319
:1005000088011092890190E490938A0180938B0175
:1005100090E0805C9F4F80938C0161E08091790135
:100520000E940D0180917A018F3F19F061E00E94D5
:100530000D0161E080917B010E940D01C5E7D1E0D2
:100540009E01255731408091840184FD03C084E0E1
:1005500090E002C088E090E02196281739072CF43B
:1005600061E08E810E940D01EBCF8BE39DE001974E
:10057000F1F760E0809179010E94DE0060E08091F7
:100580007B010E94DE0080917A018F3F19F060E0CC
:100590000E94DE008091840184FD20C063E085E735
:1005A00091E00E94E801CBE4D6E4CE010197F1F797
:1005B00063E085E791E00E94E8012197F1F763E0AD
:1005C00085E791E00E94E80183E592E00197F1F769
:1005D00062E085E791E00E94E80115C080620E9418
:1005E00068028BE496E40197F1F7809184018062C0
:1005F0000E94680283E592E00197F1F780918401FF
:1006000080620E9468028091840180620E94680278
:1006100084E0809385018CE00E9468020E946E0253
:1006200082E08093860186E0DF91CF910C9468028E
:10063000643008F063E090918801691710F06FEF63
:10064000690FE62FF0E0EB58FE4F9489890F806820
:100650000C94680241E00E94150281E090E0089548
:10066000089580E090E00895009769F0FC01019002
:100670000020E9F73197AF01481B590BBC0185E712
:1006800091E00C94A80180E090E008958F929F92F1
:10069000AF92BF920F931F93CF93DF93CDB7DEB787
:1006A000A1970FB6F894DEBF0FBECDBF19A242309E
:1006B00008F44AE08E010F5D1F4F842E912CA12C6F
:1006C000B12CA50194010E94DC08E62FB901CA01F2
:1006D00001501109EA3014F4E05D01C0E95CD80171
:1006E000EC93232B242B252B61F7C8010E943403A4
:1006F000A1960FB6F894DEBF0FBECDBFDF91CF91AC
:100700001F910F91BF90AF909F908F900895CF92BF
:10071000DF92EF92FF926B017C0141E06DE285E791
:1007200091E00E94150266277727CB016C197D099D
:100730008E099F094AE00E9446030196FF90EF90C0
:10074000DF90CF9008950C943403CF93DF93809182
:100750006A0190916B01019701F5609164017091BC
:100760006501EB012196D0936501C093640161E0BE
:100770008EE00E941803BE01DD0F880B990B97FFD6
:1007800003C00E94870303C04AE00E94460389E138
:1007900091E0DF91CF910C94A303DF91CF91089565
:1007A000BC01990F880B990B97FD0C9487034AE0C5
:1007B0000C9446030E9404091F920F920FB60F92E9
:1007C00011242F933F938F939F93AF93BF93809167
:1007D0006D0190916E01A0916F01B0917001309107
:1007E0006C0123E0230F2D3720F40196A11DB11DCC
:1007F00005C026E8230F0296A11DB11D20936C01B0
:1008000080936D0190936E01A0936F01B09370017E
:100810008091710190917201A0917301B091740166
:100820000196A11DB11D8093710190937201A09357
:100830007301B0937401BF91AF919F918F913F91DC
:100840002F910F900FBE0F901F9018951F920F922F
:100850000FB60F9211242F933F934F935F936F9393
:100860007F938F939F93AF93BF93EF93FF93E09109
:100870006001F09161010995FF91EF91BF91AF91F6
:100880009F918F917F916F915F914F913F912F91A8
:100890000F900FBE0F901F901895789484B58260CA
:1008A00084BD84B5816084BD85B5826085BD85B514
:1008B000816085BD80916E00816080936E00109292
:1008C000810080918100826080938100809181000D
:1008D000816080938100809180008160809380009E
:1008E0008091B10084608093B1008091B0008160FC
:1008F0008093B00080917A00846080937A00809128
:100900007A00826080937A0080917A00816080937F
:100910007A0080917A00806880937A001092C100FA
:1009200064E084E10E94760260E084E00E940D01B0
:1009300062E082E00E940D0180E1809381001092CC
:10094000800088EA91E6909387008093860084E196
:100950008093810085EA93E0909361018093600128
:1009600081E080936F000E946E0260E080E00E9450
:1009700018038CE091E00E94A30361E080E00E94F4
:1009800018038BE191E00E94A30362E080E00E94E3
:1009900018038AE291E00E94A30363E080E00E94D2
:1009A00018038CE391E00E94A3038FE0382E90E4BB
:1009B000292E00E010E0C1E0D0E082E00E94B50006
:1009C000892B21F4D0936B01C0936A0180916A0155
:1009D00090916B01019709F090C084E00E94B500EE
:1009E0008130910539F42091680130916901232B00
:1009F00009F467C184E00E94B500892B39F4809125
:100A0000680190916901019709F476C180916401B0
:100A1000909165010A9709F070C0809166019091EC
:100A20006701389E7001399EF00C1124F092630129
:100A3000E092620110926B0110926A0162E08EE016
:100A40000E941803C7010E94D00389E191E00E942F
:100A5000A3038091620190916301853691050CF4A6
:100A600044C00E946E0260E080E00E9418038AE4A5
:100A700091E00E94A30362E080E00E9418038AE2F2
:100A800091E00E94A30362E08EE00E94180380912F
:100A90006201909163010E94D00368EE73E080E0F0
:100AA00090E00E946E010E946E0260E080E00E9471
:100AB00018038CE091E00E94A30361E080E00E94B3
:100AC00018038BE191E00E94A30362E080E00E94A2
:100AD00018038AE291E00E94A30363E080E00E9491
:100AE00018038CE391E00E94A30310926701109217
:100AF0006601109265011092640120927C00809141
:100B00007A00806480937A0080917A0086FDFCCF21
:100B1000609178008091790070E0782B072E000CAE
:100B2000880B990B0E94B50720E030E040E85AE3BB
:100B30000E946A0820E030E44CE955E40E946A080B
:100B400020E030E040E251E40E9412076B017C019A
:100B50004B015C0163E08EE00E941803A70196013F
:100B6000C701B6010E94D708882319F083E591E0F8
:100B70001AC026013701E89477F82FEF3FEF4FE7CF
:100B80005FE7C301B2010E94D70881110FC02FEFA8
:100B90003FEF4FE75FE7C301B2010E940D07181650
:100BA0002CF487E591E00E9434037AC02FEF3FEFE9
:100BB0004FE75FE4C701B6010E94650818161CF4F0
:100BC0008BE591E0F0CF2FEF3FEF4FE75FECC701F0
:100BD000B6010E940D0787FDF3CF20E030E0A901A8
:100BE000C701B6010E940D0787FF0CC041E06DE20E
:100BF00085E791E00E94150246015701B7FAB094CB
:100C0000B7F8B0942AE037ED43EA5BE3C501B401DD
:100C10000E94A1064B015C010E9484076B017C01CC
:100C20000E94B3079B01AC01C501B4010E94A0065C
:100C30004B015C014AE0C701B6010E94460341E056
:100C40006EE285E791E00E94150220E030E040E28C
:100C500051E4C501B4010E946A084B015C010E9485
:100C600084076B01E12CF12C4AE0C701B6010E9418
:100C70004603C701B6010E94B3079B01AC01C50141
:100C8000B4010E94A00620E030E040E251E40E945E
:100C90006A080E94840780E090E04AE00E944603D0
:100CA00089E191E00E94A30364E670E080E090E0B7
:100CB0000E946E010115110509F47FCE0E9400000B
:100CC0007CCEE0906601F09067012FEFE21AF20A05
:100CD000F0926701E0926601909369018093680148
:100CE00060E08EE00E941803C7010E94D00389E1F2
:100CF00091E00E94A3037ECE1092690110926801D8
:100D000085CEE5E7F1E01382128284E091E09183E1
:100D100080838DE084838FEF85838CE086838BE0F6
:100D200087838AE0808789E0818788E082871386CD
:100D3000148615861686178661E080E10C9476028B
:100D40005058BB27AA270E94B8060C942B080E9473
:100D50001D0838F00E94240820F039F49F3F19F450
:100D600026F40C941A080EF4E095E7FB0C94140892
:100D7000E92F0E943C0858F3BA17620773078407EB
:100D8000950720F079F4A6F50C945E080EF4E09532
:100D90000B2EBA2FA02D0B01B90190010C01CA0135
:100DA000A0011124FF27591B99F0593F50F4503EE0
:100DB00068F11A16F040A22F232F342F4427585FD2
:100DC000F3CF469537952795A795F0405395C9F7EA
:100DD0007EF41F16BA0B620B730B840BBAF09150A2
:100DE000A1F0FF0FBB1F661F771F881FC2F70EC041
:100DF000BA0F621F731F841F48F487957795679514
:100E0000B795F7959E3F08F0B0CF9395880F08F0FF
:100E10009927EE0F9795879508950E94F00708F49B
:100E200081E008950E9426070C942B080E94240854
:100E300058F00E941D0840F029F45F3F29F00C94FF
:100E4000140851110C945F080C941A080E943C0875
:100E500068F39923B1F3552391F3951B550BBB27E9
:100E6000AA2762177307840738F09F5F5F4F220F2E
:100E7000331F441FAA1FA9F335D00E2E3AF0E0E825
:100E800032D091505040E695001CCAF72BD0FE2F6F
:100E900029D0660F771F881FBB1F26173707480703
:100EA000AB07B0E809F0BB0B802DBF01FF279358BB
:100EB0005F4F3AF09E3F510578F00C9414080C9463
:100EC0005F085F3FE4F3983ED4F386957795679586
:100ED000B795F7959F5FC9F7880F911D96958795F0
:100EE00097F90895E1E0660F771F881FBB1F62170F
:100EF00073078407BA0720F0621B730B840BBA0BCD
:100F0000EE1F88F7E09508950E94440888F09F57E7
:100F100098F0B92F9927B751B0F0E1F0660F771F1D
:100F2000881F991F1AF0BA95C9F714C0B13091F013
:100F30000E945E08B1E008950C945E08672F782F38
:100F40008827B85F39F0B93FCCF3869577956795D8
:100F5000B395D9F73EF490958095709561957F4F44
:100F60008F4F9F4F0895E89409C097FB3EF49095EA
:100F70008095709561957F4F8F4F9F4F9923A9F072
:100F8000F92F96E9BB279395F69587957795679501
:100F9000B795F111F8CFFAF4BB0F11F460FF1BC045
:100FA0006F5F7F4F8F4F9F4F16C0882311F096E9D8
:100FB00011C0772321F09EE8872F762F05C0662386
:100FC00071F096E8862F70E060E02AF09A95660F3F
:100FD000771F881FDAF7880F9695879597F90895F8
:100FE000990F0008550FAA0BE0E8FEEF161617063A
:100FF000E807F907C0F012161306E407F50798F0A2
:10100000621B730B840B950B39F40A2661F0232BBA
:10101000242B252B21F408950A2609F4A140A69536
:101020008FEF811D811D089597F99F6780E870E01B
:1010300060E008959FEF80EC089500240A9416164E
:10104000170618060906089500240A9412161306B6
:10105000140605060895092E0394000C11F4882344
:1010600052F0BB0F40F4BF2B11F460FF04C06F5F60
:101070007F4F8F4F9F4F089557FD9058440F551F36
:1010800059F05F3F71F04795880F97FB991F61F00A
:101090009F3F79F087950895121613061406551F81
:1010A000F2CF4695F1DF08C0161617061806991FED
:1010B000F1CF86957105610508940895E894BB27E2
:1010C00066277727CB0197F908950E94F00708F467
:1010D0008FEF08950E947D080C942B080E941D0834
:1010E00038F00E94240820F0952311F00C94140885
:1010F0000C941A0811240C945F080E943C0870F3A9
:10110000959FC1F3950F50E0551F629FF001729FAC
:10111000BB27F00DB11D639FAA27F00DB11DAA1FBB
:10112000649F6627B00DA11D661F829F2227B00D08
:10113000A11D621F739FB00DA11D621F839FA00D93
:10114000611D221F749F3327A00D611D231F849FE3
:10115000600D211D822F762F6A2F11249F5750403A
:101160009AF0F1F088234AF0EE0FFF1FBB1F661FB5
:10117000771F881F91505040A9F79E3F510580F07E
:101180000C9414080C945F085F3FE4F3983ED4F38A
:10119000869577956795B795F795E7959F5FC1F722
:1011A000FE2B880F911D9695879597F908950E94BB
:1011B000F007880B990B0895A1E21A2EAA1BBB1BFE
:1011C000FD010DC0AA1FBB1FEE1FFF1FA217B30713
:1011D000E407F50720F0A21BB30BE40BF50B661F29
:1011E000771F881F991F1A9469F7609570958095ED
:1011F00090959B01AC01BD01CF010895EE0FFF1F3B
:101200000590F491E02D099481E090E0F8940C941D
:061210000909F894FFCF6C
:10121600000000002A03A8013103300343757272EF
:10122600656E7420484220203A200054696D65207E
:10123600696E20536563203A20004842207065722B
:10124600204D696E20203A20302E3000426F64799E
:101256002054656D7020203A2000414C455254219F
:101266002121006E616E00696E66006F7666000071
:00000001FF
