:1000000012C02CC02BC02AC029C028C027C026C0BF
:1000100025C024C023C022C021C020C01FC01EC0D4
:100020001DC01CC01BC011241FBECFE5D4E0DEBF25
:10003000CDBF10E0A0E6B0E0E4E9F1E002C0059039
:100040000D92A437B107D9F710E0A4E7B0E001C0E2
:100050001D92A537B107E1F765D09AC0D1CF959829
:100060009698982F907F98BB979A20EA3FE0F901E5
:100070003197F1F797988295807F88BB979AC9014D
:100080000197F1F797980895959A9698982F907FF1
:1000900098BB979A20EA3FE0F9013197F1F79798DA
:1000A0008295807F88BB979AC9010197F1F797984D
:1000B00008951F93CF93DF93EC0110E005C09927BB
:1000C00087FD9095E1DF1F5FFE01E10FF11D80814B
:1000D0008823A9F7DF91CF911F9108958FEF87BBF8
:1000E00081BB979883E3BBDF82E3B9DF88E2B7DFA8
:1000F0008EE0B5DF81E0B3DF80E49FE10197F1F7A7
:1001000008951F93182F8DE8AADF812F6AE034D05D
:10011000805DBADF812F6AE02FD0892F805DB4DF48
:100120001F9108951F93CF93DF93D8DF80E690E06F
:10013000C0DFD09A87E886B980EE87B911E0C0E9C0
:10014000D1E0369A349BFECF85B18093740086341B
:1001500018F4D7DF18BB05C0C1DF8DE690E0A9DF3A
:1001600018BA80B3817085BB80ED97E0FE013197AE
:10017000F1F70197D9F7E5CF991B79E004C0991FF2
:10018000961708F0961B881F7A95C9F780950895F1
:04019000F894FFCF11
:1001940054656D70657261747572653A00414C45C1
:0401A40052540000B1
:00000001FF
